{
  "address": "0x604570fA0f83785ea925575d165725170eC316Cc",
  "abi": [
    {
      "inputs": [],
      "stateMutability": "nonpayable",
      "type": "constructor"
    },
    {
      "inputs": [],
      "name": "implementation",
      "outputs": [
        {
          "internalType": "address",
          "name": "",
          "type": "address"
        }
      ],
      "stateMutability": "view",
      "type": "function"
    },
    {
      "inputs": [
        {
          "internalType": "address",
          "name": "_dao",
          "type": "address"
        },
        {
          "internalType": "bytes",
          "name": "_data",
          "type": "bytes"
        }
      ],
      "name": "prepareInstallation",
      "outputs": [
        {
          "internalType": "address",
          "name": "plugin",
          "type": "address"
        },
        {
          "components": [
            {
              "internalType": "address[]",
              "name": "helpers",
              "type": "address[]"
            },
            {
              "components": [
                {
                  "internalType": "enum PermissionLib.Operation",
                  "name": "operation",
                  "type": "uint8"
                },
                {
                  "internalType": "address",
                  "name": "where",
                  "type": "address"
                },
                {
                  "internalType": "address",
                  "name": "who",
                  "type": "address"
                },
                {
                  "internalType": "address",
                  "name": "condition",
                  "type": "address"
                },
                {
                  "internalType": "bytes32",
                  "name": "permissionId",
                  "type": "bytes32"
                }
              ],
              "internalType": "struct PermissionLib.MultiTargetPermission[]",
              "name": "permissions",
              "type": "tuple[]"
            }
          ],
          "internalType": "struct IPluginSetup.PreparedSetupData",
          "name": "preparedSetupData",
          "type": "tuple"
        }
      ],
      "stateMutability": "nonpayable",
      "type": "function"
    },
    {
      "inputs": [
        {
          "internalType": "address",
          "name": "_dao",
          "type": "address"
        },
        {
          "components": [
            {
              "internalType": "address",
              "name": "plugin",
              "type": "address"
            },
            {
              "internalType": "address[]",
              "name": "currentHelpers",
              "type": "address[]"
            },
            {
              "internalType": "bytes",
              "name": "data",
              "type": "bytes"
            }
          ],
          "internalType": "struct IPluginSetup.SetupPayload",
          "name": "_payload",
          "type": "tuple"
        }
      ],
      "name": "prepareUninstallation",
      "outputs": [
        {
          "components": [
            {
              "internalType": "enum PermissionLib.Operation",
              "name": "operation",
              "type": "uint8"
            },
            {
              "internalType": "address",
              "name": "where",
              "type": "address"
            },
            {
              "internalType": "address",
              "name": "who",
              "type": "address"
            },
            {
              "internalType": "address",
              "name": "condition",
              "type": "address"
            },
            {
              "internalType": "bytes32",
              "name": "permissionId",
              "type": "bytes32"
            }
          ],
          "internalType": "struct PermissionLib.MultiTargetPermission[]",
          "name": "permissions",
          "type": "tuple[]"
        }
      ],
      "stateMutability": "pure",
      "type": "function"
    },
    {
      "inputs": [
        {
          "internalType": "address",
          "name": "_dao",
          "type": "address"
        },
        {
          "internalType": "uint16",
          "name": "_currentBuild",
          "type": "uint16"
        },
        {
          "components": [
            {
              "internalType": "address",
              "name": "plugin",
              "type": "address"
            },
            {
              "internalType": "address[]",
              "name": "currentHelpers",
              "type": "address[]"
            },
            {
              "internalType": "bytes",
              "name": "data",
              "type": "bytes"
            }
          ],
          "internalType": "struct IPluginSetup.SetupPayload",
          "name": "_payload",
          "type": "tuple"
        }
      ],
      "name": "prepareUpdate",
      "outputs": [
        {
          "internalType": "bytes",
          "name": "initData",
          "type": "bytes"
        },
        {
          "components": [
            {
              "internalType": "address[]",
              "name": "helpers",
              "type": "address[]"
            },
            {
              "components": [
                {
                  "internalType": "enum PermissionLib.Operation",
                  "name": "operation",
                  "type": "uint8"
                },
                {
                  "internalType": "address",
                  "name": "where",
                  "type": "address"
                },
                {
                  "internalType": "address",
                  "name": "who",
                  "type": "address"
                },
                {
                  "internalType": "address",
                  "name": "condition",
                  "type": "address"
                },
                {
                  "internalType": "bytes32",
                  "name": "permissionId",
                  "type": "bytes32"
                }
              ],
              "internalType": "struct PermissionLib.MultiTargetPermission[]",
              "name": "permissions",
              "type": "tuple[]"
            }
          ],
          "internalType": "struct IPluginSetup.PreparedSetupData",
          "name": "preparedSetupData",
          "type": "tuple"
        }
      ],
      "stateMutability": "nonpayable",
      "type": "function"
    },
    {
      "inputs": [
        {
          "internalType": "bytes4",
          "name": "_interfaceId",
          "type": "bytes4"
        }
      ],
      "name": "supportsInterface",
      "outputs": [
        {
          "internalType": "bool",
          "name": "",
          "type": "bool"
        }
      ],
      "stateMutability": "view",
      "type": "function"
    }
  ],
  "transactionHash": "0x8895107db0d07e49b29e8bbf380f18c9a1e4bd7b5c43fb95d59b988e876f3af6",
  "args": [],
  "numDeployments": 1,
  "solcInputHash": "7d813fbc2dcf1a124495d2a664e7af9b",
  "bytecode": "0x60a060405234801561001057600080fd5b5060405161001d9061004b565b604051809103906000f080158015610039573d6000803e3d6000fd5b506001600160a01b0316608052610058565b6112ae806110aa83390190565b6080516110316100796000396000818160ad015261033a01526110316000f3fe60806040523480156200001157600080fd5b50600436106200006f5760003560e01c80639cb0a12411620000565780639cb0a12414620000d8578063a8a9c29e14620000fe578063f10832f1146200012557600080fd5b806301ffc9a714620000745780635c60da1b14620000a0575b600080fd5b6200008b62000085366004620004b9565b6200014c565b60405190151581526020015b60405180910390f35b6040516001600160a01b037f000000000000000000000000000000000000000000000000000000000000000016815260200162000097565b620000ef620000e93660046200051b565b62000184565b604051620000979190620005d6565b620001156200010f36600462000623565b62000274565b6040516200009792919062000772565b6200013c62000136366004620007ba565b6200029c565b6040516200009792919062000888565b60006001600160e01b0319821663099718b560e41b14806200017e57506301ffc9a760e01b6001600160e01b03198316145b92915050565b604080516001808252818301909252606091816020015b6040805160a0810182526000808252602080830182905292820181905260608201819052608082015282526000199092019101816200019b5750506040805160a0810190915260018152909150602080820190620001fc90850185620008b4565b6001600160a01b03168152602001846001600160a01b0316815260200160006001600160a01b031681526020017ff3c069b9d73f22a284db371233c4924669b347e0824a390e9ba432a7b7078e6981525081600081518110620002635762000263620008d2565b602002602001018190525092915050565b606062000294604051806040016040528060608152602001606081525090565b935093915050565b6000620002bc604051806040016040528060608152602001606081525090565b600083806020019051810190620002d49190620008e8565b604080516001600160a01b038816602482015260448082018490528251808303909101815260649091019091526020810180517bffffffffffffffffffffffffffffffffffffffffffffffffffffffff1663cd6dc68760e01b17905290915062000360907f00000000000000000000000000000000000000000000000000000000000000009062000452565b60408051600180825281830190925291945060009190816020015b6040805160a0810182526000808252602080830182905292820181905260608201819052608082015282526000199092019101816200037b579050506040805160a081019091529091508060008152602001856001600160a01b03168152602001876001600160a01b0316815260200160006001600160a01b031681526020017ff3c069b9d73f22a284db371233c4924669b347e0824a390e9ba432a7b7078e6981525081600081518110620004355762000435620008d2565b602002602001018190525080836020018190525050509250929050565b600062000460838362000467565b9392505050565b600082826040516200047990620004ab565b6200048692919062000902565b604051809103906000f080158015620004a3573d6000803e3d6000fd5b509392505050565b6106fe806200092783390190565b600060208284031215620004cc57600080fd5b81356001600160e01b0319811681146200046057600080fd5b80356001600160a01b0381168114620004fd57600080fd5b919050565b6000606082840312156200051557600080fd5b50919050565b600080604083850312156200052f57600080fd5b6200053a83620004e5565b9150602083013567ffffffffffffffff8111156200055757600080fd5b620005658582860162000502565b9150509250929050565b60008151600381106200059257634e487b7160e01b600052602160045260246000fd5b8352506020818101516001600160a01b0390811691840191909152604080830151821690840152606080830151909116908301526080908101519082015260a00190565b6020808252825182820181905260009190848201906040850190845b818110156200061757620006088385516200056f565b938501939250600101620005f2565b50909695505050505050565b6000806000606084860312156200063957600080fd5b6200064484620004e5565b9250602084013561ffff811681146200065c57600080fd5b9150604084013567ffffffffffffffff8111156200067957600080fd5b620006878682870162000502565b9150509250925092565b6000815180845260005b81811015620006b9576020818501810151868301820152016200069b565b506000602082860101526020601f19601f83011685010191505092915050565b805160408084528151908401819052600091602091908201906060860190845b81811015620007205783516001600160a01b031683529284019291840191600101620006f9565b50508483015186820387850152805180835290840192506000918401905b808310156200076757620007548285516200056f565b915084840193506001830192506200073e565b509695505050505050565b60408152600062000787604083018562000691565b82810360208401526200079b8185620006d9565b95945050505050565b634e487b7160e01b600052604160045260246000fd5b60008060408385031215620007ce57600080fd5b620007d983620004e5565b9150602083013567ffffffffffffffff80821115620007f757600080fd5b818501915085601f8301126200080c57600080fd5b813581811115620008215762000821620007a4565b604051601f8201601f19908116603f011681019083821181831017156200084c576200084c620007a4565b816040528281528860208487010111156200086657600080fd5b8260208601602083013760006020848301015280955050505050509250929050565b6001600160a01b0383168152604060208201526000620008ac6040830184620006d9565b949350505050565b600060208284031215620008c757600080fd5b6200046082620004e5565b634e487b7160e01b600052603260045260246000fd5b600060208284031215620008fb57600080fd5b5051919050565b6001600160a01b0383168152604060208201526000620008ac60408301846200069156fe60806040526040516106fe3803806106fe83398101604081905261002291610319565b61002e82826000610035565b5050610436565b61003e8361006b565b60008251118061004b5750805b156100665761006483836100ab60201b6100291760201c565b505b505050565b610074816100d7565b6040516001600160a01b038216907fbc7cd75a20ee27fd9adebab32041f755214dbc6bffa90cc0225b39da2e5c2d3b90600090a250565b60606100d083836040518060600160405280602781526020016106d7602791396101a9565b9392505050565b6100ea8161022260201b6100551760201c565b6101515760405162461bcd60e51b815260206004820152602d60248201527f455243313936373a206e657720696d706c656d656e746174696f6e206973206e60448201526c1bdd08184818dbdb9d1c9858dd609a1b60648201526084015b60405180910390fd5b806101887f360894a13ba1a3210667c828492db98dca3e2076cc3735a920a3ca505d382bbc60001b61023160201b6100641760201c565b80546001600160a01b0319166001600160a01b039290921691909117905550565b6060600080856001600160a01b0316856040516101c691906103e7565b600060405180830381855af49150503d8060008114610201576040519150601f19603f3d011682016040523d82523d6000602084013e610206565b606091505b50909250905061021886838387610234565b9695505050505050565b6001600160a01b03163b151590565b90565b606083156102a357825160000361029c576001600160a01b0385163b61029c5760405162461bcd60e51b815260206004820152601d60248201527f416464726573733a2063616c6c20746f206e6f6e2d636f6e74726163740000006044820152606401610148565b50816102ad565b6102ad83836102b5565b949350505050565b8151156102c55781518083602001fd5b8060405162461bcd60e51b81526004016101489190610403565b634e487b7160e01b600052604160045260246000fd5b60005b838110156103105781810151838201526020016102f8565b50506000910152565b6000806040838503121561032c57600080fd5b82516001600160a01b038116811461034357600080fd5b60208401519092506001600160401b038082111561036057600080fd5b818501915085601f83011261037457600080fd5b815181811115610386576103866102df565b604051601f8201601f19908116603f011681019083821181831017156103ae576103ae6102df565b816040528281528860208487010111156103c757600080fd5b6103d88360208301602088016102f5565b80955050505050509250929050565b600082516103f98184602087016102f5565b9190910192915050565b60208152600082518060208401526104228160408501602087016102f5565b601f01601f19169190910160400192915050565b610292806104456000396000f3fe60806040523661001357610011610017565b005b6100115b610027610022610067565b61009f565b565b606061004e838360405180606001604052806027815260200161025f602791396100c3565b9392505050565b6001600160a01b03163b151590565b90565b600061009a7f360894a13ba1a3210667c828492db98dca3e2076cc3735a920a3ca505d382bbc546001600160a01b031690565b905090565b3660008037600080366000845af43d6000803e8080156100be573d6000f35b3d6000fd5b6060600080856001600160a01b0316856040516100e0919061020f565b600060405180830381855af49150503d806000811461011b576040519150601f19603f3d011682016040523d82523d6000602084013e610120565b606091505b50915091506101318683838761013b565b9695505050505050565b606083156101af5782516000036101a8576001600160a01b0385163b6101a85760405162461bcd60e51b815260206004820152601d60248201527f416464726573733a2063616c6c20746f206e6f6e2d636f6e747261637400000060448201526064015b60405180910390fd5b50816101b9565b6101b983836101c1565b949350505050565b8151156101d15781518083602001fd5b8060405162461bcd60e51b815260040161019f919061022b565b60005b838110156102065781810151838201526020016101ee565b50506000910152565b600082516102218184602087016101eb565b9190910192915050565b602081526000825180602084015261024a8160408501602087016101eb565b601f01601f1916919091016040019291505056fe416464726573733a206c6f772d6c6576656c2064656c65676174652063616c6c206661696c6564a164736f6c6343000811000a416464726573733a206c6f772d6c6576656c2064656c65676174652063616c6c206661696c6564a164736f6c6343000811000a60a06040523060805234801561001457600080fd5b5061001d61002a565b61002561002a565b6100e9565b600054610100900460ff16156100965760405162461bcd60e51b815260206004820152602760248201527f496e697469616c697a61626c653a20636f6e747261637420697320696e697469604482015266616c697a696e6760c81b606482015260840160405180910390fd5b60005460ff908116146100e7576000805460ff191660ff9081179091556040519081527f7f26b83ff96e1f2b6a682f133852f6798a09c465da95921460cefb38474024989060200160405180910390a15b565b60805161118e610120600039600081816102d70152818161036101528181610457015281816104dc01526105c6015261118e6000f3fe6080604052600436106100c75760003560e01c80635c60da1b11610074578063b63394181161004e578063b633941814610207578063c9c4bfca14610227578063cd6dc6871461025b57600080fd5b80635c60da1b146101a75780638381f58a146101bc5780639c61f97e146101d357600080fd5b806341de6830116100a557806341de6830146101555780634f1ef2861461017157806352d1902d1461018457600080fd5b806301ffc9a7146100cc5780633659cfe6146101015780634162169f14610123575b600080fd5b3480156100d857600080fd5b506100ec6100e7366004610eb5565b61027b565b60405190151581526020015b60405180910390f35b34801561010d57600080fd5b5061012161011c366004610ef4565b6102cd565b005b34801561012f57600080fd5b5060c9546001600160a01b03165b6040516001600160a01b0390911681526020016100f8565b34801561016157600080fd5b5060006040516100f89190610f11565b61012161017f366004610f4f565b61044d565b34801561019057600080fd5b506101996105b9565b6040519081526020016100f8565b3480156101b357600080fd5b5061013d61067e565b3480156101c857600080fd5b5061019961012d5481565b3480156101df57600080fd5b506101997ff3c069b9d73f22a284db371233c4924669b347e0824a390e9ba432a7b7078e6981565b34801561021357600080fd5b50610121610222366004611013565b6106b6565b34801561023357600080fd5b506101997f821b6e3a557148015a918c89e5d092e878a69854a2d1a410635f771bd5a8a3f581565b34801561026757600080fd5b5061012161027636600461102c565b610731565b60006001600160e01b0319821663041de68360e41b14806102ac57506001600160e01b031982166352d1902d60e01b145b806102c757506301ffc9a760e01b6001600160e01b03198316145b92915050565b6001600160a01b037f000000000000000000000000000000000000000000000000000000000000000016300361035f5760405162461bcd60e51b815260206004820152602c60248201527f46756e6374696f6e206d7573742062652063616c6c6564207468726f7567682060448201526b19195b1959d85d1958d85b1b60a21b60648201526084015b60405180910390fd5b7f00000000000000000000000000000000000000000000000000000000000000006001600160a01b03166103ba7f360894a13ba1a3210667c828492db98dca3e2076cc3735a920a3ca505d382bbc546001600160a01b031690565b6001600160a01b0316146104255760405162461bcd60e51b815260206004820152602c60248201527f46756e6374696f6e206d7573742062652063616c6c6564207468726f7567682060448201526b6163746976652070726f787960a01b6064820152608401610356565b61042e8161088d565b6040805160008082526020820190925261044a918391906108c6565b50565b6001600160a01b037f00000000000000000000000000000000000000000000000000000000000000001630036104da5760405162461bcd60e51b815260206004820152602c60248201527f46756e6374696f6e206d7573742062652063616c6c6564207468726f7567682060448201526b19195b1959d85d1958d85b1b60a21b6064820152608401610356565b7f00000000000000000000000000000000000000000000000000000000000000006001600160a01b03166105357f360894a13ba1a3210667c828492db98dca3e2076cc3735a920a3ca505d382bbc546001600160a01b031690565b6001600160a01b0316146105a05760405162461bcd60e51b815260206004820152602c60248201527f46756e6374696f6e206d7573742062652063616c6c6564207468726f7567682060448201526b6163746976652070726f787960a01b6064820152608401610356565b6105a98261088d565b6105b5828260016108c6565b5050565b6000306001600160a01b037f000000000000000000000000000000000000000000000000000000000000000016146106595760405162461bcd60e51b815260206004820152603860248201527f555550535570677261646561626c653a206d757374206e6f742062652063616c60448201527f6c6564207468726f7567682064656c656761746563616c6c00000000000000006064820152608401610356565b507f360894a13ba1a3210667c828492db98dca3e2076cc3735a920a3ca505d382bbc90565b60006106b17f360894a13ba1a3210667c828492db98dca3e2076cc3735a920a3ca505d382bbc546001600160a01b031690565b905090565b60c9547ff3c069b9d73f22a284db371233c4924669b347e0824a390e9ba432a7b7078e69906106f4906001600160a01b031630335b84600036610a66565b61012d8290556040518281527f3564ffb2fd8f93d7b0e9d1173ffdff5ee9775d860bfe82eaca0d0dbe07c8b6349060200160405180910390a15050565b600054610100900460ff16158080156107515750600054600160ff909116105b8061076b5750303b15801561076b575060005460ff166001145b6107dd5760405162461bcd60e51b815260206004820152602e60248201527f496e697469616c697a61626c653a20636f6e747261637420697320616c72656160448201527f647920696e697469616c697a65640000000000000000000000000000000000006064820152608401610356565b6000805460ff191660011790558015610800576000805461ff0019166101001790555b61080983610b22565b61012d8290556040518281527f3564ffb2fd8f93d7b0e9d1173ffdff5ee9775d860bfe82eaca0d0dbe07c8b6349060200160405180910390a18015610888576000805461ff0019169055604051600181527f7f26b83ff96e1f2b6a682f133852f6798a09c465da95921460cefb38474024989060200160405180910390a15b505050565b60c9547f821b6e3a557148015a918c89e5d092e878a69854a2d1a410635f771bd5a8a3f5906105b5906001600160a01b031630336106eb565b7f4910fdfa16fed3260ed0e7147f7cc6da11a60208b5b9406d12a635614ffd91435460ff16156108f95761088883610b96565b826001600160a01b03166352d1902d6040518163ffffffff1660e01b8152600401602060405180830381865afa925050508015610953575060408051601f3d908101601f1916820190925261095091810190611058565b60015b6109c55760405162461bcd60e51b815260206004820152602e60248201527f45524331393637557067726164653a206e657720696d706c656d656e7461746960448201527f6f6e206973206e6f7420555550530000000000000000000000000000000000006064820152608401610356565b7f360894a13ba1a3210667c828492db98dca3e2076cc3735a920a3ca505d382bbc8114610a5a5760405162461bcd60e51b815260206004820152602960248201527f45524331393637557067726164653a20756e737570706f727465642070726f7860448201527f6961626c655555494400000000000000000000000000000000000000000000006064820152608401610356565b50610888838383610c61565b604051637ef7c88360e11b81526001600160a01b0387169063fdef910690610a9a9088908890889088908890600401611071565b602060405180830381865afa158015610ab7573d6000803e3d6000fd5b505050506040513d601f19601f82011682018060405250810190610adb91906110c5565b610b1a57604051630cb6f8ed60e21b81526001600160a01b03808816600483015280871660248301528516604482015260648101849052608401610356565b505050505050565b600054610100900460ff16610b8d5760405162461bcd60e51b815260206004820152602b60248201527f496e697469616c697a61626c653a20636f6e7472616374206973206e6f74206960448201526a6e697469616c697a696e6760a81b6064820152608401610356565b61044a81610c8c565b6001600160a01b0381163b610c135760405162461bcd60e51b815260206004820152602d60248201527f455243313936373a206e657720696d706c656d656e746174696f6e206973206e60448201527f6f74206120636f6e7472616374000000000000000000000000000000000000006064820152608401610356565b7f360894a13ba1a3210667c828492db98dca3e2076cc3735a920a3ca505d382bbc805473ffffffffffffffffffffffffffffffffffffffff19166001600160a01b0392909216919091179055565b610c6a83610d26565b600082511180610c775750805b1561088857610c868383610d66565b50505050565b600054610100900460ff16610cf75760405162461bcd60e51b815260206004820152602b60248201527f496e697469616c697a61626c653a20636f6e7472616374206973206e6f74206960448201526a6e697469616c697a696e6760a81b6064820152608401610356565b60c9805473ffffffffffffffffffffffffffffffffffffffff19166001600160a01b0392909216919091179055565b610d2f81610b96565b6040516001600160a01b038216907fbc7cd75a20ee27fd9adebab32041f755214dbc6bffa90cc0225b39da2e5c2d3b90600090a250565b6060610d8b838360405180606001604052806027815260200161115b60279139610d92565b9392505050565b6060600080856001600160a01b031685604051610daf919061110b565b600060405180830381855af49150503d8060008114610dea576040519150601f19603f3d011682016040523d82523d6000602084013e610def565b606091505b5091509150610e0086838387610e0a565b9695505050505050565b60608315610e79578251600003610e72576001600160a01b0385163b610e725760405162461bcd60e51b815260206004820152601d60248201527f416464726573733a2063616c6c20746f206e6f6e2d636f6e74726163740000006044820152606401610356565b5081610e83565b610e838383610e8b565b949350505050565b815115610e9b5781518083602001fd5b8060405162461bcd60e51b81526004016103569190611127565b600060208284031215610ec757600080fd5b81356001600160e01b031981168114610d8b57600080fd5b6001600160a01b038116811461044a57600080fd5b600060208284031215610f0657600080fd5b8135610d8b81610edf565b6020810160038310610f3357634e487b7160e01b600052602160045260246000fd5b91905290565b634e487b7160e01b600052604160045260246000fd5b60008060408385031215610f6257600080fd5b8235610f6d81610edf565b9150602083013567ffffffffffffffff80821115610f8a57600080fd5b818501915085601f830112610f9e57600080fd5b813581811115610fb057610fb0610f39565b604051601f8201601f19908116603f01168101908382118183101715610fd857610fd8610f39565b81604052828152886020848701011115610ff157600080fd5b8260208601602083013760006020848301015280955050505050509250929050565b60006020828403121561102557600080fd5b5035919050565b6000806040838503121561103f57600080fd5b823561104a81610edf565b946020939093013593505050565b60006020828403121561106a57600080fd5b5051919050565b60006001600160a01b03808816835280871660208401525084604083015260806060830152826080830152828460a0840137600060a0848401015260a0601f19601f85011683010190509695505050505050565b6000602082840312156110d757600080fd5b81518015158114610d8b57600080fd5b60005b838110156111025781810151838201526020016110ea565b50506000910152565b6000825161111d8184602087016110e7565b9190910192915050565b60208152600082518060208401526111468160408501602087016110e7565b601f01601f1916919091016040019291505056fe416464726573733a206c6f772d6c6576656c2064656c65676174652063616c6c206661696c6564a164736f6c6343000811000a",
  "devdoc": {
    "details": "Release 1, Build 1",
    "kind": "dev",
    "methods": {
      "implementation()": {
        "details": "The implementation can be instantiated via the `new` keyword, cloned via the minimal clones pattern (see [ERC-1167](https://eips.ethereum.org/EIPS/eip-1167)), or proxied via the UUPS pattern (see [ERC-1822](https://eips.ethereum.org/EIPS/eip-1822)).",
        "returns": {
          "_0": "The address of the plugin implementation contract."
        }
      },
      "prepareInstallation(address,bytes)": {
        "params": {
          "_dao": "The address of the installing DAO.",
          "_data": "The bytes-encoded data containing the input parameters for the installation as specified in the plugin's build metadata JSON file."
        },
        "returns": {
          "plugin": "The address of the `Plugin` contract being prepared for installation.",
          "preparedSetupData": "The deployed plugin's relevant data which consists of helpers and permissions."
        }
      },
      "prepareUninstallation(address,(address,address[],bytes))": {
        "params": {
          "_dao": "The address of the uninstalling DAO.",
          "_payload": "The relevant data necessary for the `prepareUninstallation`. See above."
        },
        "returns": {
          "permissions": "The array of multi-targeted permission operations to be applied by the `PluginSetupProcessor` to the uninstalling DAO."
        }
      },
      "prepareUpdate(address,uint16,(address,address[],bytes))": {
        "params": {
          "_currentBuild": "The build number of the plugin to update from.",
          "_dao": "The address of the updating DAO.",
          "_payload": "The relevant data necessary for the `prepareUpdate`. See above."
        },
        "returns": {
          "initData": "The initialization data to be passed to upgradeable contracts when the update is applied in the `PluginSetupProcessor`.",
          "preparedSetupData": "The deployed plugin's relevant data which consists of helpers and permissions."
        }
      },
      "supportsInterface(bytes4)": {
        "params": {
          "_interfaceId": "The ID of the interface."
        },
        "returns": {
          "_0": "Returns `true` if the interface is supported."
        }
      }
    },
    "title": "MyPluginSetup",
    "version": 1
  },
  "userdoc": {
    "kind": "user",
    "methods": {
      "implementation()": {
        "notice": "Returns the plugin implementation address."
      },
      "prepareInstallation(address,bytes)": {
        "notice": "Prepares the installation of a plugin."
      },
      "prepareUninstallation(address,(address,address[],bytes))": {
        "notice": "Prepares the uninstallation of a plugin."
      },
      "prepareUpdate(address,uint16,(address,address[],bytes))": {
        "notice": "Prepares the update of a plugin."
      },
      "supportsInterface(bytes4)": {
        "notice": "Checks if this or the parent contract supports an interface by its ID."
      }
    },
    "version": 1
  },
  "storageLayout": {
    "storage": [],
    "types": null
  }
}